{
    "contractName": "RDSToken",
    "abi": [
        {
            "inputs": [
                {
                    "internalType": "string",
                    "name": "name",
                    "type": "string"
                },
                {
                    "internalType": "string",
                    "name": "symbol",
                    "type": "string"
                },
                {
                    "internalType": "address[]",
                    "name": "defaultOperators",
                    "type": "address[]"
                }
            ],
            "stateMutability": "nonpayable",
            "type": "constructor"
        },
        {
            "anonymous": false,
            "inputs": [
                {
                    "indexed": true,
                    "internalType": "address",
                    "name": "owner",
                    "type": "address"
                },
                {
                    "indexed": true,
                    "internalType": "address",
                    "name": "spender",
                    "type": "address"
                },
                {
                    "indexed": false,
                    "internalType": "uint256",
                    "name": "value",
                    "type": "uint256"
                }
            ],
            "name": "Approval",
            "type": "event"
        },
        {
            "anonymous": false,
            "inputs": [
                {
                    "indexed": true,
                    "internalType": "address",
                    "name": "operator",
                    "type": "address"
                },
                {
                    "indexed": true,
                    "internalType": "address",
                    "name": "tokenHolder",
                    "type": "address"
                }
            ],
            "name": "AuthorizedOperator",
            "type": "event"
        },
        {
            "anonymous": false,
            "inputs": [
                {
                    "indexed": true,
                    "internalType": "address",
                    "name": "operator",
                    "type": "address"
                },
                {
                    "indexed": true,
                    "internalType": "address",
                    "name": "from",
                    "type": "address"
                },
                {
                    "indexed": false,
                    "internalType": "uint256",
                    "name": "amount",
                    "type": "uint256"
                },
                {
                    "indexed": false,
                    "internalType": "bytes",
                    "name": "data",
                    "type": "bytes"
                },
                {
                    "indexed": false,
                    "internalType": "bytes",
                    "name": "operatorData",
                    "type": "bytes"
                }
            ],
            "name": "Burned",
            "type": "event"
        },
        {
            "anonymous": false,
            "inputs": [
                {
                    "indexed": true,
                    "internalType": "address",
                    "name": "operator",
                    "type": "address"
                },
                {
                    "indexed": true,
                    "internalType": "address",
                    "name": "to",
                    "type": "address"
                },
                {
                    "indexed": false,
                    "internalType": "uint256",
                    "name": "amount",
                    "type": "uint256"
                },
                {
                    "indexed": false,
                    "internalType": "bytes",
                    "name": "data",
                    "type": "bytes"
                },
                {
                    "indexed": false,
                    "internalType": "bytes",
                    "name": "operatorData",
                    "type": "bytes"
                }
            ],
            "name": "Minted",
            "type": "event"
        },
        {
            "anonymous": false,
            "inputs": [
                {
                    "indexed": true,
                    "internalType": "address",
                    "name": "previousOwner",
                    "type": "address"
                },
                {
                    "indexed": true,
                    "internalType": "address",
                    "name": "newOwner",
                    "type": "address"
                }
            ],
            "name": "OwnershipTransferred",
            "type": "event"
        },
        {
            "anonymous": false,
            "inputs": [
                {
                    "indexed": true,
                    "internalType": "address",
                    "name": "operator",
                    "type": "address"
                },
                {
                    "indexed": true,
                    "internalType": "address",
                    "name": "tokenHolder",
                    "type": "address"
                }
            ],
            "name": "RevokedOperator",
            "type": "event"
        },
        {
            "anonymous": false,
            "inputs": [
                {
                    "indexed": true,
                    "internalType": "address",
                    "name": "operator",
                    "type": "address"
                },
                {
                    "indexed": true,
                    "internalType": "address",
                    "name": "from",
                    "type": "address"
                },
                {
                    "indexed": true,
                    "internalType": "address",
                    "name": "to",
                    "type": "address"
                },
                {
                    "indexed": false,
                    "internalType": "uint256",
                    "name": "amount",
                    "type": "uint256"
                },
                {
                    "indexed": false,
                    "internalType": "bytes",
                    "name": "data",
                    "type": "bytes"
                },
                {
                    "indexed": false,
                    "internalType": "bytes",
                    "name": "operatorData",
                    "type": "bytes"
                }
            ],
            "name": "Sent",
            "type": "event"
        },
        {
            "anonymous": false,
            "inputs": [
                {
                    "indexed": true,
                    "internalType": "address",
                    "name": "from",
                    "type": "address"
                },
                {
                    "indexed": true,
                    "internalType": "address",
                    "name": "to",
                    "type": "address"
                },
                {
                    "indexed": false,
                    "internalType": "uint256",
                    "name": "value",
                    "type": "uint256"
                }
            ],
            "name": "Transfer",
            "type": "event"
        },
        {
            "inputs": [
                {
                    "internalType": "address",
                    "name": "holder",
                    "type": "address"
                },
                {
                    "internalType": "address",
                    "name": "spender",
                    "type": "address"
                }
            ],
            "name": "allowance",
            "outputs": [
                {
                    "internalType": "uint256",
                    "name": "",
                    "type": "uint256"
                }
            ],
            "stateMutability": "view",
            "type": "function"
        },
        {
            "inputs": [
                {
                    "internalType": "address",
                    "name": "spender",
                    "type": "address"
                },
                {
                    "internalType": "uint256",
                    "name": "value",
                    "type": "uint256"
                }
            ],
            "name": "approve",
            "outputs": [
                {
                    "internalType": "bool",
                    "name": "",
                    "type": "bool"
                }
            ],
            "stateMutability": "nonpayable",
            "type": "function"
        },
        {
            "inputs": [
                {
                    "internalType": "address",
                    "name": "operator",
                    "type": "address"
                }
            ],
            "name": "authorizeOperator",
            "outputs": [],
            "stateMutability": "nonpayable",
            "type": "function"
        },
        {
            "inputs": [
                {
                    "internalType": "address",
                    "name": "tokenHolder",
                    "type": "address"
                }
            ],
            "name": "balanceOf",
            "outputs": [
                {
                    "internalType": "uint256",
                    "name": "",
                    "type": "uint256"
                }
            ],
            "stateMutability": "view",
            "type": "function"
        },
        {
            "inputs": [
                {
                    "internalType": "uint256",
                    "name": "amount",
                    "type": "uint256"
                },
                {
                    "internalType": "bytes",
                    "name": "data",
                    "type": "bytes"
                }
            ],
            "name": "burn",
            "outputs": [],
            "stateMutability": "nonpayable",
            "type": "function"
        },
        {
            "inputs": [],
            "name": "decimals",
            "outputs": [
                {
                    "internalType": "uint8",
                    "name": "",
                    "type": "uint8"
                }
            ],
            "stateMutability": "pure",
            "type": "function"
        },
        {
            "inputs": [],
            "name": "defaultOperators",
            "outputs": [
                {
                    "internalType": "address[]",
                    "name": "",
                    "type": "address[]"
                }
            ],
            "stateMutability": "view",
            "type": "function"
        },
        {
            "inputs": [],
            "name": "granularity",
            "outputs": [
                {
                    "internalType": "uint256",
                    "name": "",
                    "type": "uint256"
                }
            ],
            "stateMutability": "view",
            "type": "function"
        },
        {
            "inputs": [
                {
                    "internalType": "address",
                    "name": "operator",
                    "type": "address"
                },
                {
                    "internalType": "address",
                    "name": "tokenHolder",
                    "type": "address"
                }
            ],
            "name": "isOperatorFor",
            "outputs": [
                {
                    "internalType": "bool",
                    "name": "",
                    "type": "bool"
                }
            ],
            "stateMutability": "view",
            "type": "function"
        },
        {
            "inputs": [
                {
                    "internalType": "address",
                    "name": "account",
                    "type": "address"
                },
                {
                    "internalType": "uint256",
                    "name": "amount",
                    "type": "uint256"
                },
                {
                    "internalType": "bytes",
                    "name": "userData",
                    "type": "bytes"
                },
                {
                    "internalType": "bytes",
                    "name": "operatorData",
                    "type": "bytes"
                }
            ],
            "name": "mint",
            "outputs": [],
            "stateMutability": "nonpayable",
            "type": "function"
        },
        {
            "inputs": [],
            "name": "name",
            "outputs": [
                {
                    "internalType": "string",
                    "name": "",
                    "type": "string"
                }
            ],
            "stateMutability": "view",
            "type": "function"
        },
        {
            "inputs": [
                {
                    "internalType": "address",
                    "name": "account",
                    "type": "address"
                },
                {
                    "internalType": "uint256",
                    "name": "amount",
                    "type": "uint256"
                },
                {
                    "internalType": "bytes",
                    "name": "data",
                    "type": "bytes"
                },
                {
                    "internalType": "bytes",
                    "name": "operatorData",
                    "type": "bytes"
                }
            ],
            "name": "operatorBurn",
            "outputs": [],
            "stateMutability": "nonpayable",
            "type": "function"
        },
        {
            "inputs": [
                {
                    "internalType": "address",
                    "name": "sender",
                    "type": "address"
                },
                {
                    "internalType": "address",
                    "name": "recipient",
                    "type": "address"
                },
                {
                    "internalType": "uint256",
                    "name": "amount",
                    "type": "uint256"
                },
                {
                    "internalType": "bytes",
                    "name": "data",
                    "type": "bytes"
                },
                {
                    "internalType": "bytes",
                    "name": "operatorData",
                    "type": "bytes"
                }
            ],
            "name": "operatorSend",
            "outputs": [],
            "stateMutability": "nonpayable",
            "type": "function"
        },
        {
            "inputs": [],
            "name": "owner",
            "outputs": [
                {
                    "internalType": "address",
                    "name": "",
                    "type": "address"
                }
            ],
            "stateMutability": "view",
            "type": "function"
        },
        {
            "inputs": [],
            "name": "renounceOwnership",
            "outputs": [],
            "stateMutability": "nonpayable",
            "type": "function"
        },
        {
            "inputs": [
                {
                    "internalType": "address",
                    "name": "operator",
                    "type": "address"
                }
            ],
            "name": "revokeOperator",
            "outputs": [],
            "stateMutability": "nonpayable",
            "type": "function"
        },
        {
            "inputs": [
                {
                    "internalType": "address",
                    "name": "recipient",
                    "type": "address"
                },
                {
                    "internalType": "uint256",
                    "name": "amount",
                    "type": "uint256"
                },
                {
                    "internalType": "bytes",
                    "name": "data",
                    "type": "bytes"
                }
            ],
            "name": "send",
            "outputs": [],
            "stateMutability": "nonpayable",
            "type": "function"
        },
        {
            "inputs": [],
            "name": "symbol",
            "outputs": [
                {
                    "internalType": "string",
                    "name": "",
                    "type": "string"
                }
            ],
            "stateMutability": "view",
            "type": "function"
        },
        {
            "inputs": [],
            "name": "totalSupply",
            "outputs": [
                {
                    "internalType": "uint256",
                    "name": "",
                    "type": "uint256"
                }
            ],
            "stateMutability": "view",
            "type": "function"
        },
        {
            "inputs": [
                {
                    "internalType": "address",
                    "name": "recipient",
                    "type": "address"
                },
                {
                    "internalType": "uint256",
                    "name": "amount",
                    "type": "uint256"
                }
            ],
            "name": "transfer",
            "outputs": [
                {
                    "internalType": "bool",
                    "name": "",
                    "type": "bool"
                }
            ],
            "stateMutability": "nonpayable",
            "type": "function"
        },
        {
            "inputs": [
                {
                    "internalType": "address",
                    "name": "holder",
                    "type": "address"
                },
                {
                    "internalType": "address",
                    "name": "recipient",
                    "type": "address"
                },
                {
                    "internalType": "uint256",
                    "name": "amount",
                    "type": "uint256"
                }
            ],
            "name": "transferFrom",
            "outputs": [
                {
                    "internalType": "bool",
                    "name": "",
                    "type": "bool"
                }
            ],
            "stateMutability": "nonpayable",
            "type": "function"
        },
        {
            "inputs": [
                {
                    "internalType": "address",
                    "name": "newOwner",
                    "type": "address"
                }
            ],
            "name": "transferOwnership",
            "outputs": [],
            "stateMutability": "nonpayable",
            "type": "function"
        }
    ],
    "bytecode": "6080604081815234620005de575f916200218a80380380916200002382856200060a565b8339810190606081830312620003425780516001600160401b039290838111620005da5781620000559184016200062e565b9160209081810151858111620005d65783620000739183016200062e565b908681015190868211620005d2570194601f91848388011215620005d257865192828411620005be5760059584871b988a5195620000b4888c01886200060a565b86528686019087829b820101928311620005ba578701905b82821062000595575050508651838111620004d657600254976001988981811c911680156200058a575b88821014620004b757908c8289868695116200055b575b50505087908d858411600114620004f65792620004ea575b50505f19600383901b1c191690881b176002555b815190838211620004d65760039283548981811c91168015620004cb575b88821014620004b757908c828985879695116200047e575b505050879183116001146200041c578c9262000410575b50505f1982841b1c191690871b1790555b8151908111620003fc57680100000000000000008111620003fc576004958654828855808310620003df575b509796959497858852838820885b838110620003c457505050509086929186975b6200036a575b5050505090919250731820a4b7618bde71dce8cdc73aab6c95905fad2490813b15620003425782516329965a1d60e01b808252308383018190527fac7fbab5f54a3ca8194167523c6753bfeb96a445279294b6125b68cce2177054602484015260448301529190858160648183885af18015620003605762000346575b5090829185933b156200034257606484928387519586948593845230908401527faea199e31a596269b42cdafd93407f14436db6e4cad65417994c2eb37381e05a60248401523060448401525af18015620003355762000319575b505060098054336001600160a01b03198216811790925591519290916001600160a01b0316907f8be0079c531659141344cd1fd0a4f28419497f9722a3daafe3b4186f6b6457e09080a3611ace9081620006bc8239f35b6200032490620005e2565b6200033157815f620002c2565b5080fd5b50505051903d90823e3d90fd5b8380fd5b62000356909591939295620005e2565b9390915f62000267565b85513d88823e3d90fd5b8051881015620003be5787831b81018201516001600160a01b03168752828252858720805460ff1916851790555f198814620003ab579683019683620001e4565b634e487b7160e01b875260118552602487fd5b620001ea565b82516001600160a01b031682820155918501918a01620001d1565b878a52848a20620003f5918101908401620006a3565b5f620001c3565b634e487b7160e01b88526041600452602488fd5b015190505f8062000186565b848d52878d208a94509190601f1984168e5b8a8282106200046757505084116200044f575b505050811b01905562000197565b01515f1983861b60f8161c191690555f808062000441565b8385015186558d979095019493840193016200042e565b8288620004a4945220848087018d1c8201928c8810620004ad575b018c1c0190620006a3565b8c5f896200016f565b9250819262000499565b634e487b7160e01b8d52602260045260248dfd5b90607f169062000157565b634e487b7160e01b8b52604160045260248bfd5b015190505f8062000125565b91908b9450601f198416600284528a8420935b8b8282106200054457505084116200052b575b505050811b0160025562000139565b01515f1960f88460031b161c191690555f80806200051c565b8385015186558e9790950194938401930162000509565b82600262000581945220868086018d1c8201928c8710620004ad57018c1c0190620006a3565b8c5f896200010d565b90607f1690620000f6565b81516001600160a01b0381168103620005b6578152908701908701620000cc565b8d80fd5b8c80fd5b634e487b7160e01b8a52604160045260248afd5b8880fd5b8780fd5b8580fd5b5f80fd5b6001600160401b038111620005f657604052565b634e487b7160e01b5f52604160045260245ffd5b601f909101601f19168101906001600160401b03821190821017620005f657604052565b919080601f84011215620005de578251906001600160401b038211620005f657604051916020916200066a601f8301601f19168401856200060a565b818452828287010111620005de575f5b8181106200068f5750825f9394955001015290565b85810183015184820184015282016200067a565b818110620006af575050565b5f8155600101620006a356fe60806040818152600480361015610014575f80fd5b5f92833560e01c90816306e4853814610cee5750806306fdde0314610c22578063095ea7b314610bf857806318160ddd14610bd957806323b872dd14610aee578063313ce56714610ad2578063556f0dc714610ab657806362ad1b8314610a3b57806370a0823114610a04578063715018a6146109a75780638da5cb5b1461097e578063959b8c3f1461088c57806395d89b41146107725780639bd9bbc614610717578063a9059cbb146106c9578063d95b637114610692578063dcdc7dd01461039e578063dd62ed3e14610351578063f2fde38b14610286578063fad8b32a14610196578063fc673c4f146101665763fe9d930314610112575f80fd5b346101625781600319360112610162576024359167ffffffffffffffff831161015e5761014561015b9336908401610e83565b90519161015183610e45565b8483523533611594565b80f35b8380fd5b8280fd5b83346101935761015b61017836610ed9565b9261018e6101898294939433610f90565b611015565b611594565b80fd5b5090346101625760208060031936011261015e576001600160a01b036101ba610ded565b169233841461023b5750828452600581528184205460ff161561021d573384526007815281842083855290528220805460ff191660011790555b33907f50546e66e5f44d728365dc3908c63bc5cfeeab470722c1677e3073a6ac294aa18380a380f35b3384526006815281842083855290528220805460ff191690556101f4565b915162461bcd60e51b815291820152602160248201527f4552433737373a207265766f6b696e672073656c66206173206f70657261746f6044820152603960f91b6064820152608490fd5b5034610162576020366003190112610162576102a0610ded565b906102a9610f38565b6001600160a01b039182169283156102ff575050600954826bffffffffffffffffffffffff60a01b821617600955167f8be0079c531659141344cd1fd0a4f28419497f9722a3daafe3b4186f6b6457e08380a380f35b906020608492519162461bcd60e51b8352820152602660248201527f4f776e61626c653a206e6577206f776e657220697320746865207a65726f206160448201526564647265737360d01b6064820152fd5b50503461039a578060031936011261039a578060209261036f610ded565b610377610e07565b6001600160a01b0391821683526008865283832091168252845220549051908152f35b5080fd5b5082903461039a576103af36610ed9565b9392956103bd929192610f38565b6001600160a01b0387811694909390851561064f5787986103e48560019a98999a546117fb565b6001558787526020958787528488206103fe8782546117fb565b9055845163555ddc6560e11b81528381018a90527fb281fc8c12954d22544db45de3159a39272895b169a852b314f9cc762e44c53b60248201528781604481731820a4b7618bde71dce8cdc73aab6c95905fad245afa908115610645578991610618575b501690811561054a5750803b156105465788879189836104ca958851968795869485936223de2960e01b8552339085015284602485015260448401528b606484015260c060848401526104b860c484018b610daf565b8381036003190160a485015290610daf565b03925af1801561053c5761052288995f80516020611a79833981519152989994937f2fe5be0146f74c5bce36c0b80911af6c7d86ff27e89d5cfa61fc681327954e5d9361052d575b505b855191829133958984611569565b0390a351908152a380f35b61053690610e1d565b8c610512565b83513d88823e3d90fd5b8680fd5b91929496505096919395963b610599575091855f80516020611a7983398151915294927f2fe5be0146f74c5bce36c0b80911af6c7d86ff27e89d5cfa61fc681327954e5d6105228a9896610514565b835162461bcd60e51b8152908101869052604d60248201527f4552433737373a20746f6b656e20726563697069656e7420636f6e747261637460448201527f20686173206e6f20696d706c656d656e74657220666f7220455243373737546f60648201526c1ad95b9cd49958da5c1a595b9d609a1b608482015260a490fd5b6106389150883d8a1161063e575b6106308183610e61565b810190611909565b8c610462565b503d610626565b86513d8b823e3d90fd5b606490602084519162461bcd60e51b8352820152602060248201527f4552433737373a206d696e7420746f20746865207a65726f20616464726573736044820152fd5b50503461039a578060031936011261039a576020906106c06106b2610ded565b6106ba610e07565b90610f90565b90519015158152f35b50503461039a578060031936011261039a576107106020926106e9610ded565b8351906106f582610e45565b82825284519261070484610e45565b83526024359033611076565b5160018152f35b50903461016257606036600319011261016257610732610ded565b9060443567ffffffffffffffff811161076e5761015b9361075591369101610e83565b90519161076183610e45565b848352602435903361131f565b8480fd5b5091346101935780600319360112610193578151918160035492600184811c91818616958615610882575b602096878510811461086f578899509688969785829a5291825f146108485750506001146107ec575b5050506107e892916107d9910385610e61565b51928284938452830190610daf565b0390f35b9190869350600383527fc2575a0e9e593c00f959f8c92f12db2869c3395a3b0502d05e2516446f71f85b5b82841061083057505050820101816107d96107e86107c6565b8054848a018601528895508794909301928101610817565b60ff19168782015293151560051b860190930193508492506107d991506107e890506107c6565b634e487b7160e01b835260228a52602483fd5b92607f169261079d565b5090346101625760208060031936011261015e576001600160a01b036108b0610ded565b16928333146109315750828452600581528184205460ff1615610910573384526007815281842083855290528220805460ff191690555b33907ff4caeb2d6ca8932a215a353d0703c326ec2d81fc68170f320eb2ab49e9df61f98380a380f35b3384526006815281842083855290528220805460ff191660011790556108e7565b915162461bcd60e51b8152918201526024808201527f4552433737373a20617574686f72697a696e672073656c66206173206f70657260448201526330ba37b960e11b6064820152608490fd5b50503461039a578160031936011261039a5760095490516001600160a01b039091168152602090f35b83346101935780600319360112610193576109c0610f38565b600980546001600160a01b0319811690915581906001600160a01b03167f8be0079c531659141344cd1fd0a4f28419497f9722a3daafe3b4186f6b6457e08280a380f35b50503461039a57602036600319011261039a5760209181906001600160a01b03610a2c610ded565b16815280845220549051908152f35b83823461039a5760a036600319011261039a57610a56610ded565b610a5e610e07565b9067ffffffffffffffff90606435828111610ab257610a809036908601610e83565b91608435908111610ab25761015b94610a9b91369101610e83565b92610aa96101898333610f90565b6044359161131f565b8580fd5b50503461039a578160031936011261039a576020905160018152f35b50503461039a578160031936011261039a576020905160128152f35b5082903461039a57606036600319011261039a57610b0a610ded565b90610b13610e07565b6001600160a01b0383168452600860209081528585203386529052848420546044359260018201610b6b575b60208761071088888888855192610b5584610e45565b848452865194610b6486610e45565b8552611076565b838210610b965750916107109391610b8a826020989795033385611808565b91938193959650610b3f565b606490602088519162461bcd60e51b8352820152601e60248201527f4552433737373a20696e73756666696369656e7420616c6c6f77616e636500006044820152fd5b50503461039a578160031936011261039a576020906001549051908152f35b50503461039a578060031936011261039a57602090610710610c18610ded565b6024359033611808565b5091346101935780600319360112610193578151918160025492600184811c91818616958615610ce4575b602096878510811461086f578899509688969785829a5291825f14610848575050600114610c88575050506107e892916107d9910385610e61565b9190869350600283527f405787fa12a823e0f2b7631cc41b3ba8828b3321ca811111fa75cd3aa3bb5ace5b828410610ccc57505050820101816107d96107e86107c6565b8054848a018601528895508794909301928101610cb3565b92607f1692610c4d565b90508334610193578060031936011261019357825480835292815260209392848301929083907f8a35acfbc15ff81a39ae7d344fd709f28e8600b4aa8c65c6b64bfe7fe36bd19b90845b818110610d925750505081610d4e910382610e61565b83519485948186019282875251809352850193925b828110610d7257505050500390f35b83516001600160a01b031685528695509381019392810192600101610d63565b82546001600160a01b031684529288019260019283019201610d38565b91908251928382525f5b848110610dd9575050825f602080949584010152601f8019910116010190565b602081830181015184830182015201610db9565b600435906001600160a01b0382168203610e0357565b5f80fd5b602435906001600160a01b0382168203610e0357565b67ffffffffffffffff8111610e3157604052565b634e487b7160e01b5f52604160045260245ffd5b6020810190811067ffffffffffffffff821117610e3157604052565b90601f8019910116810190811067ffffffffffffffff821117610e3157604052565b81601f82011215610e035780359067ffffffffffffffff8211610e315760405192610eb8601f8401601f191660200185610e61565b82845260208383010111610e0357815f926020809301838601378301015290565b906080600319830112610e03576004356001600160a01b0381168103610e0357916024359167ffffffffffffffff604435818111610e035783610f1e91600401610e83565b92606435918211610e0357610f3591600401610e83565b90565b6009546001600160a01b03163303610f4c57565b606460405162461bcd60e51b815260206004820152602060248201527f4f776e61626c653a2063616c6c6572206973206e6f7420746865206f776e65726044820152fd5b6001600160a01b039182169116818114918215610fd2575b8215610fb357505090565b9091505f52600660205260405f20905f5260205260ff60405f20541690565b91505f818152600560205260ff6040822054169081610ff3575b5091610fa8565b60ff91508084604092526007602052818120848252602052205416155f610fec565b1561101c57565b60405162461bcd60e51b815260206004820152602c60248201527f4552433737373a2063616c6c6572206973206e6f7420616e206f70657261746f60448201526b39103337b9103437b63232b960a11b6064820152608490fd5b92936001600160a01b03808516949093929085156112cb5784821694851561127a576110a6848987868633611972565b5f9587875260209087825260409889892054888110611226579082818a7f06b541ddaa720db2b10a4d0cdac39b8d360425fc073085fac19bc826146779878f8f908f828f9382878a9c8f9561111b968c82525203828220558981522061110d8782546117fb565b905551928392339684611569565b0390a45f80516020611a79833981519152848c518b8152a388519063555ddc6560e11b825260048201527fb281fc8c12954d22544db45de3159a39272895b169a852b314f9cc762e44c53b60248201528181604481731820a4b7618bde71dce8cdc73aab6c95905fad245afa91821561121c5788926111ff575b5050169283156111f557833b15610ab25785949392916111cc869289519a8b97889687956223de2960e01b87523360048801611928565b03925af19182156111eb5750506111e05750565b6111e990610e1d565b565b51903d90823e3d90fd5b5050505050505050565b6112159250803d1061063e576106308183610e61565b5f80611195565b89513d8a823e3d90fd5b8a5162461bcd60e51b815260048101859052602760248201527f4552433737373a207472616e7366657220616d6f756e7420657863656564732060448201526662616c616e636560c81b6064820152608490fd5b60405162461bcd60e51b8152602060048201526024808201527f4552433737373a207472616e7366657220746f20746865207a65726f206164646044820152637265737360e01b6064820152608490fd5b60405162461bcd60e51b815260206004820152602660248201527f4552433737373a207472616e736665722066726f6d20746865207a65726f206160448201526564647265737360d01b6064820152608490fd5b92936001600160a01b03808516949093929085156112cb5784821692831561127a5761134f818987868633611972565b5f9587875260209487865260409889892054888110611515579082818a7f06b541ddaa720db2b10a4d0cdac39b8d360425fc073085fac19bc826146779878f8f908f828f9382878f969c828c9e8c6113b798525203828220558981522061110d8782546117fb565b0390a45f80516020611a79833981519152888c518b8152a388519063555ddc6560e11b825260048201527fb281fc8c12954d22544db45de3159a39272895b169a852b314f9cc762e44c53b60248201528581604481731820a4b7618bde71dce8cdc73aab6c95905fad245afa90811561121c5788916114f8575b50169384156114685750833b15610ab25785949392916111cc869289519a8b97889687956223de2960e01b87523360048801611928565b97505050925050503b611479575050565b60a49250519062461bcd60e51b82526004820152604d60248201527f4552433737373a20746f6b656e20726563697069656e7420636f6e747261637460448201527f20686173206e6f20696d706c656d656e74657220666f7220455243373737546f60648201526c1ad95b9cd49958da5c1a595b9d609a1b6084820152fd5b61150f9150863d881161063e576106308183610e61565b5f611431565b8a5162461bcd60e51b815260048101899052602760248201527f4552433737373a207472616e7366657220616d6f756e7420657863656564732060448201526662616c616e636560c81b6064820152608490fd5b9161158690610f3594928452606060208501526060840190610daf565b916040818403910152610daf565b91926001600160a01b0392831692909183156117ab576040805163555ddc6560e11b8152600481018690527f29ddb589b1fb5fc7cf394961c1adf5f8c6454761adf795e67fe149f658abe8956024820152602093908481604481731820a4b7618bde71dce8cdc73aab6c95905fad245afa9081156117a1575f91611784575b5016806116fd575b50845f525f8352805f20548281106116ad578290865f525f855203815f2055600154828103908111611699575f967fa78a9be3a7b862d26933ad85fb11d80ef66b8f972d7cbba06621d583943a409861168f5f80516020611a79833981519152978994600155855191829133958984611569565b0390a351908152a3565b634e487b7160e01b5f52601160045260245ffd5b815162461bcd60e51b815260048101859052602360248201527f4552433737373a206275726e20616d6f756e7420657863656564732062616c616044820152626e636560e81b6064820152608490fd5b803b15610e03578151633ad5cbc160e11b8152336004820152602481018790525f604482018190526064820185905260c060848301529091829081838161175c61174a60c483018f610daf565b8281036003190160a48401528c610daf565b03925af1801561177a571561161b5761177490610e1d565b5f61161b565b82513d5f823e3d90fd5b61179b9150853d871161063e576106308183610e61565b5f611613565b83513d5f823e3d90fd5b60405162461bcd60e51b815260206004820152602260248201527f4552433737373a206275726e2066726f6d20746865207a65726f206164647265604482015261737360f01b6064820152608490fd5b9190820180921161169957565b6001600160a01b039081169182156118b657169182156118655760207f8c5be1e5ebec7d5bd14f71427d1e84f3dd0314c0f7b2291e5b200ac8c7c3b92591835f526008825260405f20855f5282528060405f2055604051908152a3565b60405162461bcd60e51b815260206004820152602360248201527f4552433737373a20617070726f766520746f20746865207a65726f206164647260448201526265737360e81b6064820152608490fd5b60405162461bcd60e51b815260206004820152602560248201527f4552433737373a20617070726f76652066726f6d20746865207a65726f206164604482015264647265737360d81b6064820152608490fd5b90816020910312610e0357516001600160a01b0381168103610e035790565b949161196493610f3597959260018060a01b0392838092168952166020880152166040860152606085015260c0608085015260c0840190610daf565b9160a0818403910152610daf565b60405163555ddc6560e11b81526001600160a01b0383811660048301527f29ddb589b1fb5fc7cf394961c1adf5f8c6454761adf795e67fe149f658abe89560248301529496939491939190602081604481731820a4b7618bde71dce8cdc73aab6c95905fad245afa908115611a4f575f91611a5a575b501692836119fa575b50505050505050565b833b15610e0357611a265f96928793604051998a9889978896633ad5cbc160e11b885260048801611928565b03925af18015611a4f57611a40575b8080808080806119f1565b611a4990610e1d565b5f611a35565b6040513d5f823e3d90fd5b611a72915060203d811161063e576106308183610e61565b5f6119e856feddf252ad1be2c89b69c2b068fc378daa952ba7f163c4a11628f55a4df523b3efa264697066735822122045d7d9141e3547586572404c017abc155cca0f832866f8d72390842d151c24f664736f6c63430008140033",
    "sourcePath": "/home/edusu/tuto/solidity/redsys_erc/script/RDSToken.sol",
    "compiler": {
        "name": "solc",
        "version": "0.8.20+commit.a1b79de6"
    },
    "functionHashes": {
        "allowance(address,address)": "dd62ed3e",
        "approve(address,uint256)": "095ea7b3",
        "authorizeOperator(address)": "959b8c3f",
        "balanceOf(address)": "70a08231",
        "burn(uint256,bytes)": "fe9d9303",
        "decimals()": "313ce567",
        "defaultOperators()": "06e48538",
        "granularity()": "556f0dc7",
        "isOperatorFor(address,address)": "d95b6371",
        "mint(address,uint256,bytes,bytes)": "dcdc7dd0",
        "name()": "06fdde03",
        "operatorBurn(address,uint256,bytes,bytes)": "fc673c4f",
        "operatorSend(address,address,uint256,bytes,bytes)": "62ad1b83",
        "owner()": "8da5cb5b",
        "renounceOwnership()": "715018a6",
        "revokeOperator(address)": "fad8b32a",
        "send(address,uint256,bytes)": "9bd9bbc6",
        "symbol()": "95d89b41",
        "totalSupply()": "18160ddd",
        "transfer(address,uint256)": "a9059cbb",
        "transferFrom(address,address,uint256)": "23b872dd",
        "transferOwnership(address)": "f2fde38b"
    },
    "gasEstimates": {
        "creation": {
            "codeDepositCost": "1372400",
            "executionCost": "infinite",
            "totalCost": "infinite"
        },
        "external": {
            "allowance(address,address)": "2943",
            "approve(address,uint256)": "24401",
            "authorizeOperator(address)": "28573",
            "balanceOf(address)": "2603",
            "burn(uint256,bytes)": "infinite",
            "decimals()": "280",
            "defaultOperators()": "infinite",
            "granularity()": "302",
            "isOperatorFor(address,address)": "7476",
            "mint(address,uint256,bytes,bytes)": "infinite",
            "name()": "infinite",
            "operatorBurn(address,uint256,bytes,bytes)": "infinite",
            "operatorSend(address,address,uint256,bytes,bytes)": "infinite",
            "owner()": "2517",
            "renounceOwnership()": "28278",
            "revokeOperator(address)": "28743",
            "send(address,uint256,bytes)": "infinite",
            "symbol()": "infinite",
            "totalSupply()": "2342",
            "transfer(address,uint256)": "infinite",
            "transferFrom(address,address,uint256)": "infinite",
            "transferOwnership(address)": "28571"
        }
    }
}